{
  "_format": "hh-sol-artifact-1",
  "contractName": "ToKanBan",
  "sourceName": "contracts/ToKanBan.sol",
  "abi": [
    {
      "anonymous": false,
      "inputs": [
        {
          "indexed": false,
          "internalType": "uint256",
          "name": "task_id",
          "type": "uint256"
        },
        {
          "indexed": false,
          "internalType": "address",
          "name": "raiderApproved",
          "type": "address"
        }
      ],
      "name": "assigned",
      "type": "event"
    },
    {
      "anonymous": false,
      "inputs": [
        {
          "indexed": false,
          "internalType": "uint256",
          "name": "task_id",
          "type": "uint256"
        },
        {
          "indexed": false,
          "internalType": "uint256",
          "name": "fundReleased",
          "type": "uint256"
        }
      ],
      "name": "taskCompleted",
      "type": "event"
    },
    {
      "anonymous": false,
      "inputs": [
        {
          "indexed": false,
          "internalType": "uint256",
          "name": "task_id",
          "type": "uint256"
        }
      ],
      "name": "taskForReviewed",
      "type": "event"
    },
    {
      "anonymous": false,
      "inputs": [
        {
          "indexed": false,
          "internalType": "uint256",
          "name": "task_id",
          "type": "uint256"
        },
        {
          "indexed": false,
          "internalType": "address",
          "name": "raider",
          "type": "address"
        },
        {
          "indexed": false,
          "internalType": "uint256",
          "name": "requestId",
          "type": "uint256"
        }
      ],
      "name": "taskRequested",
      "type": "event"
    },
    {
      "anonymous": false,
      "inputs": [
        {
          "indexed": false,
          "internalType": "uint256",
          "name": "task_id",
          "type": "uint256"
        }
      ],
      "name": "taskReviewRevoke",
      "type": "event"
    },
    {
      "anonymous": false,
      "inputs": [
        {
          "indexed": false,
          "internalType": "uint256",
          "name": "task_id",
          "type": "uint256"
        },
        {
          "indexed": false,
          "internalType": "uint256",
          "name": "funds",
          "type": "uint256"
        },
        {
          "indexed": false,
          "internalType": "string",
          "name": "detail",
          "type": "string"
        }
      ],
      "name": "taskSubmitted",
      "type": "event"
    },
    {
      "inputs": [
        {
          "internalType": "uint256",
          "name": "_taskid",
          "type": "uint256"
        },
        {
          "internalType": "uint256",
          "name": "_requestId",
          "type": "uint256"
        }
      ],
      "name": "assignTaskToRaider",
      "outputs": [],
      "stateMutability": "nonpayable",
      "type": "function"
    },
    {
      "inputs": [],
      "name": "getBalance",
      "outputs": [
        {
          "internalType": "uint256",
          "name": "",
          "type": "uint256"
        }
      ],
      "stateMutability": "view",
      "type": "function"
    },
    {
      "inputs": [],
      "name": "payContract",
      "outputs": [],
      "stateMutability": "payable",
      "type": "function"
    },
    {
      "inputs": [],
      "name": "pm",
      "outputs": [
        {
          "internalType": "address",
          "name": "",
          "type": "address"
        }
      ],
      "stateMutability": "view",
      "type": "function"
    },
    {
      "inputs": [
        {
          "internalType": "uint256",
          "name": "_id",
          "type": "uint256"
        }
      ],
      "name": "requestTask",
      "outputs": [],
      "stateMutability": "nonpayable",
      "type": "function"
    },
    {
      "inputs": [
        {
          "internalType": "address",
          "name": "_pm",
          "type": "address"
        }
      ],
      "name": "setPM",
      "outputs": [],
      "stateMutability": "nonpayable",
      "type": "function"
    },
    {
      "inputs": [
        {
          "internalType": "uint256",
          "name": "_funds",
          "type": "uint256"
        },
        {
          "internalType": "string",
          "name": "_details",
          "type": "string"
        }
      ],
      "name": "submitTask",
      "outputs": [],
      "stateMutability": "payable",
      "type": "function"
    },
    {
      "inputs": [
        {
          "internalType": "uint256",
          "name": "_taskid",
          "type": "uint256"
        }
      ],
      "name": "taskComplete",
      "outputs": [],
      "stateMutability": "nonpayable",
      "type": "function"
    },
    {
      "inputs": [
        {
          "internalType": "uint256",
          "name": "_taskid",
          "type": "uint256"
        }
      ],
      "name": "taskForReview",
      "outputs": [],
      "stateMutability": "nonpayable",
      "type": "function"
    },
    {
      "inputs": [
        {
          "internalType": "uint256",
          "name": "",
          "type": "uint256"
        }
      ],
      "name": "taskLog",
      "outputs": [
        {
          "internalType": "string",
          "name": "details",
          "type": "string"
        },
        {
          "internalType": "uint256",
          "name": "funds",
          "type": "uint256"
        },
        {
          "internalType": "bool",
          "name": "assigned",
          "type": "bool"
        },
        {
          "internalType": "address payable",
          "name": "raider",
          "type": "address"
        },
        {
          "internalType": "bool",
          "name": "reviewed",
          "type": "bool"
        },
        {
          "internalType": "bool",
          "name": "closed",
          "type": "bool"
        }
      ],
      "stateMutability": "view",
      "type": "function"
    },
    {
      "inputs": [
        {
          "internalType": "uint256",
          "name": "_taskid",
          "type": "uint256"
        }
      ],
      "name": "taskReviewRevoked",
      "outputs": [],
      "stateMutability": "nonpayable",
      "type": "function"
    },
    {
      "inputs": [
        {
          "internalType": "uint256",
          "name": "_taskid",
          "type": "uint256"
        },
        {
          "internalType": "uint256",
          "name": "_requestId",
          "type": "uint256"
        }
      ],
      "name": "viewRequests",
      "outputs": [
        {
          "internalType": "address",
          "name": "",
          "type": "address"
        },
        {
          "internalType": "uint256",
          "name": "",
          "type": "uint256"
        }
      ],
      "stateMutability": "view",
      "type": "function"
    }
  ],
  "bytecode": "0x608060405234801561001057600080fd5b50611305806100206000396000f3fe6080604052600436106100a75760003560e01c80638e7f4361116100645780638e7f4361146102ae5780639573590c1461032457806398faa47f1461035f578063ac787a621461039a578063ecb0b862146103d5578063fd228953146103df576100a7565b806312065fe0146100ac5780631f8f5002146100d757806346efe2801461011c5780635d24c6a81461016d578063776bae68146101a85780638970cdff1461026d575b600080fd5b3480156100b857600080fd5b506100c16104d2565b6040518082815260200191505060405180910390f35b3480156100e357600080fd5b5061011a600480360360408110156100fa57600080fd5b8101908080359060200190929190803590602001909291905050506104da565b005b34801561012857600080fd5b5061016b6004803603602081101561013f57600080fd5b81019080803573ffffffffffffffffffffffffffffffffffffffff169060200190929190505050610710565b005b34801561017957600080fd5b506101a66004803603602081101561019057600080fd5b8101908080359060200190929190505050610754565b005b61026b600480360360408110156101be57600080fd5b8101908080359060200190929190803590602001906401000000008111156101e557600080fd5b8201836020820111156101f757600080fd5b8035906020019184600183028401116401000000008311171561021957600080fd5b91908080601f016020809104026020016040519081016040528093929190818152602001838380828437600081840152601f19601f8201169050808301925050505050505091929192905050506109c3565b005b34801561027957600080fd5b50610282610c68565b604051808273ffffffffffffffffffffffffffffffffffffffff16815260200191505060405180910390f35b3480156102ba57600080fd5b506102f1600480360360408110156102d157600080fd5b810190808035906020019092919080359060200190929190505050610c8e565b604051808373ffffffffffffffffffffffffffffffffffffffff1681526020018281526020019250505060405180910390f35b34801561033057600080fd5b5061035d6004803603602081101561034757600080fd5b8101908080359060200190929190505050610cff565b005b34801561036b57600080fd5b506103986004803603602081101561038257600080fd5b8101908080359060200190929190505050610e2b565b005b3480156103a657600080fd5b506103d3600480360360208110156103bd57600080fd5b8101908080359060200190929190505050610f21565b005b6103dd61109c565b005b3480156103eb57600080fd5b506104186004803603602081101561040257600080fd5b810190808035906020019092919050505061109e565b604051808060200187815260200186151581526020018573ffffffffffffffffffffffffffffffffffffffff16815260200184151581526020018315158152602001828103825288818151815260200191508051906020019080838360005b83811015610492578082015181840152602081019050610477565b50505050905090810190601f1680156104bf5780820380516001836020036101000a031916815260200191505b5097505050505050505060405180910390f35b600047905090565b3373ffffffffffffffffffffffffffffffffffffffff16600160009054906101000a900473ffffffffffffffffffffffffffffffffffffffff1673ffffffffffffffffffffffffffffffffffffffff161461059d576040517f08c379a00000000000000000000000000000000000000000000000000000000081526004018080602001828103825260098152602001807f4f6e6c792074686520000000000000000000000000000000000000000000000081525060200191505060405180910390fd5b6002600083815260200190815260200160002060020181815481106105be57fe5b9060005260206000200160009054906101000a900473ffffffffffffffffffffffffffffffffffffffff166002600084815260200190815260200160002060030160016101000a81548173ffffffffffffffffffffffffffffffffffffffff021916908373ffffffffffffffffffffffffffffffffffffffff16021790555060016002600084815260200190815260200160002060030160006101000a81548160ff0219169083151502179055507fe31906475d9c5a2441d947cce9bbaaa5a4a897e6c956f25851e1e908ce0ea1c8826002600085815260200190815260200160002060020183815481106106af57fe5b9060005260206000200160009054906101000a900473ffffffffffffffffffffffffffffffffffffffff16604051808381526020018273ffffffffffffffffffffffffffffffffffffffff1681526020019250505060405180910390a15050565b80600160006101000a81548173ffffffffffffffffffffffffffffffffffffffff021916908373ffffffffffffffffffffffffffffffffffffffff16021790555050565b3373ffffffffffffffffffffffffffffffffffffffff16600160009054906101000a900473ffffffffffffffffffffffffffffffffffffffff1673ffffffffffffffffffffffffffffffffffffffff1614610817576040517f08c379a00000000000000000000000000000000000000000000000000000000081526004018080602001828103825260098152602001807f4f6e6c792074686520000000000000000000000000000000000000000000000081525060200191505060405180910390fd5b600115156002600083815260200190815260200160002060030160159054906101000a900460ff16151514610897576040517f08c379a00000000000000000000000000000000000000000000000000000000081526004018080602001828103825260258152602001806112ab6025913960400191505060405180910390fd5b60006002600083815260200190815260200160002060010154905060006002600084815260200190815260200160002060030160019054906101000a900473ffffffffffffffffffffffffffffffffffffffff1690508073ffffffffffffffffffffffffffffffffffffffff166108fc839081150290604051600060405180830381858888f19350505050158015610933573d6000803e3d6000fd5b506000600260008581526020019081526020016000206001018190555060016002600085815260200190815260200160002060030160166101000a81548160ff0219169083151502179055507fcecfe069ba6fec9da7eef46471cf342236259edb2613707eb625d530de5f27a58383604051808381526020018281526020019250505060405180910390a1505050565b3373ffffffffffffffffffffffffffffffffffffffff16600160009054906101000a900473ffffffffffffffffffffffffffffffffffffffff1673ffffffffffffffffffffffffffffffffffffffff1614610a86576040517f08c379a00000000000000000000000000000000000000000000000000000000081526004018080602001828103825260098152602001807f4f6e6c792074686520000000000000000000000000000000000000000000000081525060200191505060405180910390fd5b348214610afb576040517f08c379a00000000000000000000000000000000000000000000000000000000081526004018080602001828103825260128152602001807f46756e647320646f206e6f74206d61746368000000000000000000000000000081525060200191505060405180910390fd5b6000610b0760006111b9565b905082600260008381526020019081526020016000206001018190555081600260008381526020019081526020016000206000019080519060200190610b4e9291906111dd565b5060006002600083815260200190815260200160002060030160156101000a81548160ff02191690831515021790555060006002600083815260200190815260200160002060030160166101000a81548160ff021916908315150217905550610bb760006111c7565b7fe8f0c2aa60cb67f41e8a68a39fb34d7556a7525b43e415acfc60a2c534c803a48184846040518084815260200183815260200180602001828103825283818151815260200191508051906020019080838360005b83811015610c27578082015181840152602081019050610c0c565b50505050905090810190601f168015610c545780820380516001836020036101000a031916815260200191505b5094505050505060405180910390a1505050565b600160009054906101000a900473ffffffffffffffffffffffffffffffffffffffff1681565b600080600260008581526020019081526020016000206002018381548110610cb257fe5b9060005260206000200160009054906101000a900473ffffffffffffffffffffffffffffffffffffffff166002600086815260200190815260200160002060010154915091509250929050565b3373ffffffffffffffffffffffffffffffffffffffff16600160009054906101000a900473ffffffffffffffffffffffffffffffffffffffff1673ffffffffffffffffffffffffffffffffffffffff1614610dc2576040517f08c379a00000000000000000000000000000000000000000000000000000000081526004018080602001828103825260098152602001807f4f6e6c792074686520000000000000000000000000000000000000000000000081525060200191505060405180910390fd5b60006002600083815260200190815260200160002060030160156101000a81548160ff0219169083151502179055507fdacaa4bbdb0a325befcb3bbfa7e3f086856eda89db9d8f6482e495652eb13543816040518082815260200191505060405180910390a150565b60026000828152602001908152602001600020600201339080600181540180825580915050600190039060005260206000200160009091909190916101000a81548173ffffffffffffffffffffffffffffffffffffffff021916908373ffffffffffffffffffffffffffffffffffffffff1602179055506000600260008381526020019081526020016000206002018054905090507ff54149f38f7c5cf5b4cff6e9ba799b2530a4217493f6e79e8ab437ea4f315472823383604051808481526020018373ffffffffffffffffffffffffffffffffffffffff168152602001828152602001935050505060405180910390a15050565b3373ffffffffffffffffffffffffffffffffffffffff166002600083815260200190815260200160002060030160019054906101000a900473ffffffffffffffffffffffffffffffffffffffff1673ffffffffffffffffffffffffffffffffffffffff161480610fde57503373ffffffffffffffffffffffffffffffffffffffff16600160009054906101000a900473ffffffffffffffffffffffffffffffffffffffff1673ffffffffffffffffffffffffffffffffffffffff16145b611033576040517f08c379a000000000000000000000000000000000000000000000000000000000815260040180806020018281038252603081526020018061127b6030913960400191505060405180910390fd5b60016002600083815260200190815260200160002060030160156101000a81548160ff0219169083151502179055507f51b5b6c2b8eca2ddc226216fa938e67b4ee171f6592dfd922bf79e73385d664a816040518082815260200191505060405180910390a150565b565b6002602052806000526040600020600091509050806000018054600181600116156101000203166002900480601f01602080910402602001604051908101604052809291908181526020018280546001816001161561010002031660029004801561114a5780601f1061111f5761010080835404028352916020019161114a565b820191906000526020600020905b81548152906001019060200180831161112d57829003601f168201915b5050505050908060010154908060030160009054906101000a900460ff16908060030160019054906101000a900473ffffffffffffffffffffffffffffffffffffffff16908060030160159054906101000a900460ff16908060030160169054906101000a900460ff16905086565b600081600001549050919050565b6001816000016000828254019250508190555050565b828054600181600116156101000203166002900490600052602060002090601f016020900481019282601f1061121e57805160ff191683800117855561124c565b8280016001018555821561124c579182015b8281111561124b578251825591602001919060010190611230565b5b509050611259919061125d565b5090565b5b8082111561127657600081600090555060010161125e565b509056fe446f6e742068617665207468652061636365737320746f2073656e6420746865207461736b20666f7220726576696577546865207461736b20686173206e6f74206265656e2073656e7420666f7220726576696577a264697066735822122052f72e37480142312b9c02123a6b61c578923bc720ff6f31f6c9b45bb4165eb864736f6c63430007030033",
  "linkReferences": {},
  "deployedLinkReferences": {}
}